{
  "contractName": "_BitcoinClassicToken",
  "abi": [
    {
      "constant": true,
      "inputs": [],
      "name": "lastRewardEthBlockNumber",
      "outputs": [
        {
          "name": "",
          "type": "uint256"
        }
      ],
      "payable": false,
      "stateMutability": "view",
      "type": "function"
    },
    {
      "constant": true,
      "inputs": [],
      "name": "rewardEra",
      "outputs": [
        {
          "name": "",
          "type": "uint256"
        }
      ],
      "payable": false,
      "stateMutability": "view",
      "type": "function"
    },
    {
      "constant": true,
      "inputs": [],
      "name": "maxSupplyForEra",
      "outputs": [
        {
          "name": "",
          "type": "uint256"
        }
      ],
      "payable": false,
      "stateMutability": "view",
      "type": "function"
    },
    {
      "constant": true,
      "inputs": [],
      "name": "tokensMinted",
      "outputs": [
        {
          "name": "",
          "type": "uint256"
        }
      ],
      "payable": false,
      "stateMutability": "view",
      "type": "function"
    },
    {
      "constant": true,
      "inputs": [],
      "name": "lastRewardTo",
      "outputs": [
        {
          "name": "",
          "type": "address"
        }
      ],
      "payable": false,
      "stateMutability": "view",
      "type": "function"
    },
    {
      "constant": true,
      "inputs": [],
      "name": "epochCount",
      "outputs": [
        {
          "name": "",
          "type": "uint256"
        }
      ],
      "payable": false,
      "stateMutability": "view",
      "type": "function"
    },
    {
      "constant": true,
      "inputs": [],
      "name": "_MAXIMUM_TARGET",
      "outputs": [
        {
          "name": "",
          "type": "uint256"
        }
      ],
      "payable": false,
      "stateMutability": "view",
      "type": "function"
    },
    {
      "constant": true,
      "inputs": [],
      "name": "miningTarget",
      "outputs": [
        {
          "name": "",
          "type": "uint256"
        }
      ],
      "payable": false,
      "stateMutability": "view",
      "type": "function"
    },
    {
      "constant": true,
      "inputs": [],
      "name": "challengeNumber",
      "outputs": [
        {
          "name": "",
          "type": "bytes32"
        }
      ],
      "payable": false,
      "stateMutability": "view",
      "type": "function"
    },
    {
      "constant": true,
      "inputs": [],
      "name": "_BLOCKS_PER_READJUSTMENT",
      "outputs": [
        {
          "name": "",
          "type": "uint256"
        }
      ],
      "payable": false,
      "stateMutability": "view",
      "type": "function"
    },
    {
      "constant": true,
      "inputs": [],
      "name": "lastRewardAmount",
      "outputs": [
        {
          "name": "",
          "type": "uint256"
        }
      ],
      "payable": false,
      "stateMutability": "view",
      "type": "function"
    },
    {
      "constant": true,
      "inputs": [],
      "name": "latestDifficultyPeriodStarted",
      "outputs": [
        {
          "name": "",
          "type": "uint256"
        }
      ],
      "payable": false,
      "stateMutability": "view",
      "type": "function"
    },
    {
      "constant": true,
      "inputs": [],
      "name": "_MINIMUM_TARGET",
      "outputs": [
        {
          "name": "",
          "type": "uint256"
        }
      ],
      "payable": false,
      "stateMutability": "view",
      "type": "function"
    },
    {
      "inputs": [
        {
          "name": "_startBlock",
          "type": "uint256"
        }
      ],
      "payable": false,
      "stateMutability": "nonpayable",
      "type": "constructor"
    },
    {
      "payable": true,
      "stateMutability": "payable",
      "type": "fallback"
    },
    {
      "anonymous": false,
      "inputs": [
        {
          "indexed": true,
          "name": "from",
          "type": "address"
        },
        {
          "indexed": false,
          "name": "reward_amount",
          "type": "uint256"
        },
        {
          "indexed": false,
          "name": "epochCount",
          "type": "uint256"
        },
        {
          "indexed": false,
          "name": "newChallengeNumber",
          "type": "bytes32"
        }
      ],
      "name": "Mint",
      "type": "event"
    },
    {
      "anonymous": false,
      "inputs": [
        {
          "indexed": true,
          "name": "_from",
          "type": "address"
        },
        {
          "indexed": true,
          "name": "_to",
          "type": "address"
        },
        {
          "indexed": false,
          "name": "_value",
          "type": "uint256"
        }
      ],
      "name": "Transfer",
      "type": "event"
    },
    {
      "anonymous": false,
      "inputs": [
        {
          "indexed": true,
          "name": "_from",
          "type": "address"
        },
        {
          "indexed": true,
          "name": "_to",
          "type": "address"
        },
        {
          "indexed": false,
          "name": "_value",
          "type": "uint256"
        },
        {
          "indexed": false,
          "name": "_data",
          "type": "bytes"
        }
      ],
      "name": "ERC223Transfer",
      "type": "event"
    },
    {
      "constant": false,
      "inputs": [
        {
          "name": "nonce",
          "type": "uint256"
        },
        {
          "name": "challenge_digest",
          "type": "bytes32"
        }
      ],
      "name": "mint",
      "outputs": [
        {
          "name": "success",
          "type": "bool"
        }
      ],
      "payable": false,
      "stateMutability": "nonpayable",
      "type": "function"
    },
    {
      "constant": true,
      "inputs": [],
      "name": "getChallengeNumber",
      "outputs": [
        {
          "name": "",
          "type": "bytes32"
        }
      ],
      "payable": false,
      "stateMutability": "view",
      "type": "function"
    },
    {
      "constant": true,
      "inputs": [],
      "name": "getMiningDifficulty",
      "outputs": [
        {
          "name": "",
          "type": "uint256"
        }
      ],
      "payable": false,
      "stateMutability": "view",
      "type": "function"
    },
    {
      "constant": true,
      "inputs": [],
      "name": "getMiningTarget",
      "outputs": [
        {
          "name": "",
          "type": "uint256"
        }
      ],
      "payable": false,
      "stateMutability": "view",
      "type": "function"
    },
    {
      "constant": true,
      "inputs": [],
      "name": "getMiningReward",
      "outputs": [
        {
          "name": "",
          "type": "uint256"
        }
      ],
      "payable": false,
      "stateMutability": "view",
      "type": "function"
    },
    {
      "constant": true,
      "inputs": [],
      "name": "name",
      "outputs": [
        {
          "name": "",
          "type": "string"
        }
      ],
      "payable": false,
      "stateMutability": "view",
      "type": "function"
    },
    {
      "constant": true,
      "inputs": [],
      "name": "symbol",
      "outputs": [
        {
          "name": "",
          "type": "string"
        }
      ],
      "payable": false,
      "stateMutability": "view",
      "type": "function"
    },
    {
      "constant": true,
      "inputs": [],
      "name": "decimals",
      "outputs": [
        {
          "name": "",
          "type": "uint8"
        }
      ],
      "payable": false,
      "stateMutability": "view",
      "type": "function"
    },
    {
      "constant": true,
      "inputs": [],
      "name": "totalSupply",
      "outputs": [
        {
          "name": "_supply",
          "type": "uint256"
        }
      ],
      "payable": false,
      "stateMutability": "view",
      "type": "function"
    },
    {
      "constant": true,
      "inputs": [
        {
          "name": "who",
          "type": "address"
        }
      ],
      "name": "balanceOf",
      "outputs": [
        {
          "name": "",
          "type": "uint256"
        }
      ],
      "payable": false,
      "stateMutability": "view",
      "type": "function"
    },
    {
      "constant": false,
      "inputs": [
        {
          "name": "_to",
          "type": "address"
        },
        {
          "name": "_value",
          "type": "uint256"
        }
      ],
      "name": "transfer",
      "outputs": [
        {
          "name": "success",
          "type": "bool"
        }
      ],
      "payable": false,
      "stateMutability": "nonpayable",
      "type": "function"
    },
    {
      "constant": false,
      "inputs": [
        {
          "name": "_to",
          "type": "address"
        },
        {
          "name": "_value",
          "type": "uint256"
        },
        {
          "name": "_data",
          "type": "bytes"
        }
      ],
      "name": "transfer",
      "outputs": [
        {
          "name": "success",
          "type": "bool"
        }
      ],
      "payable": false,
      "stateMutability": "nonpayable",
      "type": "function"
    }
  ],
  "bytecode": "0x60806040526107e060095562010000600a557c0100000000000000000000000000000000000000000000000000000000600b553480156200003f57600080fd5b5060405160208062001d51833981018060405281019080805190602001909291905050506040805190810160405280600381526020017f424354000000000000000000000000000000000000000000000000000000000081525060019080519060200190620000b092919062000645565b506040805190810160405280601581526020017f426974636f696e20436c617373696320546f6b656e000000000000000000000081525060029080519060200190620000fe92919062000645565b506008600360006101000a81548160ff021916908360ff160217905550600360009054906101000a900460ff1660ff16600a0a6301406f4002600481905550620001636002600454620001a06401000000000262000d9b179091906401000000009004565b600f81905550600b54600c81905550806006819055504360078190555062000199620001c6640100000000026401000000009004565b50620006f4565b60008082111515620001b157600080fd5b8183811515620001bd57fe5b04905092915050565b600f5462000206620001e6620002dd640100000000026401000000009004565b601454620003246401000000000262000dbf179091906401000000009004565b1180156200021657506027600e54105b156200022f57600e600081548092919060010191905055505b62000280620002606001600e540160020a600454620001a06401000000000262000d9b179091906401000000009004565b600454620003416401000000000262001417179091906401000000009004565b600f819055506008600081548092919060010191905055506000600954600854811515620002aa57fe5b061415620002cc57620002cb6200035e640100000000026401000000009004565b5b6001430340600d8160001916905550565b60006200031f600e5460020a600360009054906101000a900460ff1660ff16600a0a603202620001a06401000000000262000d9b179091906401000000009004565b905090565b600081830190508281101515156200033b57600080fd5b92915050565b60008282111515156200035357600080fd5b818303905092915050565b60008060008060008060006200038e60075443620003416401000000000262001417179091906401000000009004565b96506009549550603c8602945084871015620004af57620003ea87620003cd606488620005f364010000000002620015d4179091906401000000009004565b620001a06401000000000262000d9b179091906401000000009004565b9350620004346103e862000417606487620003416401000000000262001417179091906401000000009004565b620006276401000000000262001605179091906401000000009004565b9250620004a36200048384620004666107d0600c54620001a06401000000000262000d9b179091906401000000009004565b620005f364010000000002620015d4179091906401000000009004565b600c54620003416401000000000262001417179091906401000000009004565b600c81905550620005b5565b620004f585620004d860648a620005f364010000000002620015d4179091906401000000009004565b620001a06401000000000262000d9b179091906401000000009004565b91506200053f6103e862000522606485620003416401000000000262001417179091906401000000009004565b620006276401000000000262001605179091906401000000009004565b9050620005ae6200058e82620005716107d0600c54620001a06401000000000262000d9b179091906401000000009004565b620005f364010000000002620015d4179091906401000000009004565b600c54620003246401000000000262000dbf179091906401000000009004565b600c819055505b43600781905550600a54600c541015620005d357600a54600c819055505b600b54600c541115620005ea57600b54600c819055505b50505050505050565b6000818302905060008314806200061557508183828115156200061257fe5b04145b15156200062157600080fd5b92915050565b6000818311156200063b578190506200063f565b8290505b92915050565b828054600181600116156101000203166002900490600052602060002090601f016020900481019282601f106200068857805160ff1916838001178555620006b9565b82800160010185558215620006b9579182015b82811115620006b85782518255916020019190600101906200069b565b5b509050620006c89190620006cc565b5090565b620006f191905b80821115620006ed576000816000905550600101620006d3565b5090565b90565b61164d80620007046000396000f300608060405260043610610149576000357c0100000000000000000000000000000000000000000000000000000000900463ffffffff16806306fdde031461014e578063163aa00d146101de57806317da485f146102095780631801fbe51461023457806318160ddd146102875780632d38bf7a146102b2578063313ce567146102dd57806332e997081461030e578063490203a7146103395780634ef37628146103645780634fa972e1146103975780636de9f32b146103c25780636fd396d6146103ed57806370a0823114610444578063829965cc1461049b57806387a2a9d6146104c65780638a769d35146104f15780638ae0368b1461051c57806395d89b411461054f578063a9059cbb146105df578063b5ade81b14610644578063bafedcaa1461066f578063be45fd621461069a578063cb9ae70714610745578063dc6e9cf914610770575b600080fd5b34801561015a57600080fd5b5061016361079b565b6040518080602001828103825283818151815260200191508051906020019080838360005b838110156101a3578082015181840152602081019050610188565b50505050905090810190601f1680156101d05780820380516001836020036101000a031916815260200191505b509250505060405180910390f35b3480156101ea57600080fd5b506101f361083d565b6040518082815260200191505060405180910390f35b34801561021557600080fd5b5061021e610843565b6040518082815260200191505060405180910390f35b34801561024057600080fd5b5061026d600480360381019080803590602001909291908035600019169060200190929190505050610861565b604051808215151515815260200191505060405180910390f35b34801561029357600080fd5b5061029c610b6c565b6040518082815260200191505060405180910390f35b3480156102be57600080fd5b506102c7610b76565b6040518082815260200191505060405180910390f35b3480156102e957600080fd5b506102f2610b7c565b604051808260ff1660ff16815260200191505060405180910390f35b34801561031a57600080fd5b50610323610b93565b6040518082815260200191505060405180910390f35b34801561034557600080fd5b5061034e610b9d565b6040518082815260200191505060405180910390f35b34801561037057600080fd5b50610379610bd4565b60405180826000191660001916815260200191505060405180910390f35b3480156103a357600080fd5b506103ac610bde565b6040518082815260200191505060405180910390f35b3480156103ce57600080fd5b506103d7610be4565b6040518082815260200191505060405180910390f35b3480156103f957600080fd5b50610402610bea565b604051808273ffffffffffffffffffffffffffffffffffffffff1673ffffffffffffffffffffffffffffffffffffffff16815260200191505060405180910390f35b34801561045057600080fd5b50610485600480360381019080803573ffffffffffffffffffffffffffffffffffffffff169060200190929190505050610c10565b6040518082815260200191505060405180910390f35b3480156104a757600080fd5b506104b0610c59565b6040518082815260200191505060405180910390f35b3480156104d257600080fd5b506104db610c5f565b6040518082815260200191505060405180910390f35b3480156104fd57600080fd5b50610506610c65565b6040518082815260200191505060405180910390f35b34801561052857600080fd5b50610531610c6b565b60405180826000191660001916815260200191505060405180910390f35b34801561055b57600080fd5b50610564610c71565b6040518080602001828103825283818151815260200191508051906020019080838360005b838110156105a4578082015181840152602081019050610589565b50505050905090810190601f1680156105d15780820380516001836020036101000a031916815260200191505b509250505060405180910390f35b3480156105eb57600080fd5b5061062a600480360381019080803573ffffffffffffffffffffffffffffffffffffffff16906020019092919080359060200190929190505050610d13565b604051808215151515815260200191505060405180910390f35b34801561065057600080fd5b50610659610d4c565b6040518082815260200191505060405180910390f35b34801561067b57600080fd5b50610684610d52565b6040518082815260200191505060405180910390f35b3480156106a657600080fd5b5061072b600480360381019080803573ffffffffffffffffffffffffffffffffffffffff16906020019092919080359060200190929190803590602001908201803590602001908080601f0160208091040260200160405190810160405280939291908181526020018383808284378201915050505050509192919290505050610d58565b604051808215151515815260200191505060405180910390f35b34801561075157600080fd5b5061075a610d8f565b6040518082815260200191505060405180910390f35b34801561077c57600080fd5b50610785610d95565b6040518082815260200191505060405180910390f35b606060028054600181600116156101000203166002900480601f0160208091040260200160405190810160405280929190818152602001828054600181600116156101000203166002900480156108335780601f1061080857610100808354040283529160200191610833565b820191906000526020600020905b81548152906001019060200180831161081657829003601f168201915b5050505050905090565b60125481565b600061085c600c54600b54610d9b90919063ffffffff16565b905090565b60008060008060065443101561087657600080fd5b600d5433876040516020018084600019166000191681526020018373ffffffffffffffffffffffffffffffffffffffff1673ffffffffffffffffffffffffffffffffffffffff166c0100000000000000000000000002815260140182815260200193505050506040516020818303038152906040526040518082805190602001908083835b60208310151561092057805182526020820191506020810190506020830392506108fb565b6001836020036101000a038019825116818451168082178552505050505050905001915050604051809103902092508460001916836000191614151561096557600080fd5b600c548360019004111561097857600080fd5b60136000600d54600019166000191681526020019081526020016000205491508260136000600d54600019166000191681526020019081526020016000208160001916905550600060010282600019161415156109d457600080fd5b6109dc610b9d565b9050610a3081600560003373ffffffffffffffffffffffffffffffffffffffff1673ffffffffffffffffffffffffffffffffffffffff16815260200190815260200160002054610dbf90919063ffffffff16565b600560003373ffffffffffffffffffffffffffffffffffffffff1673ffffffffffffffffffffffffffffffffffffffff16815260200190815260200160002081905550610a8881601454610dbf90919063ffffffff16565b601481905550600f5460145411151515610a9e57fe5b33601060006101000a81548173ffffffffffffffffffffffffffffffffffffffff021916908373ffffffffffffffffffffffffffffffffffffffff1602179055508060118190555043601281905550610af5610ddb565b3373ffffffffffffffffffffffffffffffffffffffff167fcf6fbb9dcea7d07263ab4f5c3a92f53af33dffc421d9d121e1c74b307e68189d82600854600d54604051808481526020018381526020018260001916600019168152602001935050505060405180910390a26001935050505092915050565b6000600454905090565b600e5481565b6000600360009054906101000a900460ff16905090565b6000600c54905090565b6000610bcf600e5460020a600360009054906101000a900460ff1660ff16600a0a603202610d9b90919063ffffffff16565b905090565b6000600d54905090565b600f5481565b60145481565b601060009054906101000a900473ffffffffffffffffffffffffffffffffffffffff1681565b6000600560008373ffffffffffffffffffffffffffffffffffffffff1673ffffffffffffffffffffffffffffffffffffffff168152602001908152602001600020549050919050565b60085481565b600b5481565b600c5481565b600d5481565b606060018054600181600116156101000203166002900480601f016020809104026020016040519081016040528092919081815260200182805460018160011615610100020316600290048015610d095780601f10610cde57610100808354040283529160200191610d09565b820191906000526020600020905b815481529060010190602001808311610cec57829003601f168201915b5050505050905090565b60006060610d2084610e9c565b15610d3757610d30848483610ec0565b9150610d45565b610d42848483611202565b91505b5092915050565b60095481565b60115481565b6000610d6384610e9c565b15610d7a57610d73848484610ec0565b9050610d88565b610d85848484611202565b90505b9392505050565b60075481565b600a5481565b60008082111515610dab57600080fd5b8183811515610db657fe5b04905092915050565b60008183019050828110151515610dd557600080fd5b92915050565b600f54610dfa610de9610b9d565b601454610dbf90919063ffffffff16565b118015610e0957506027600e54105b15610e2157600e600081548092919060010191905055505b610e52610e416001600e540160020a600454610d9b90919063ffffffff16565b60045461141790919063ffffffff16565b600f819055506008600081548092919060010191905055506000600954600854811515610e7b57fe5b061415610e8b57610e8a611433565b5b6001430340600d8160001916905550565b600080823b90506000811115610eb55760019150610eba565b600091505b50919050565b60008083610ecd33610c10565b1015610ed857600080fd5b610ef384610ee533610c10565b61141790919063ffffffff16565b600560003373ffffffffffffffffffffffffffffffffffffffff1673ffffffffffffffffffffffffffffffffffffffff16815260200190815260200160002081905550610f5184610f4387610c10565b610dbf90919063ffffffff16565b600560008773ffffffffffffffffffffffffffffffffffffffff1673ffffffffffffffffffffffffffffffffffffffff168152602001908152602001600020819055508490508073ffffffffffffffffffffffffffffffffffffffff1663c0ee0b8a3386866040518463ffffffff167c0100000000000000000000000000000000000000000000000000000000028152600401808473ffffffffffffffffffffffffffffffffffffffff1673ffffffffffffffffffffffffffffffffffffffff16815260200183815260200180602001828103825283818151815260200191508051906020019080838360005b8381101561105957808201518184015260208101905061103e565b50505050905090810190601f1680156110865780820380516001836020036101000a031916815260200191505b50945050505050600060405180830381600087803b1580156110a757600080fd5b505af11580156110bb573d6000803e3d6000fd5b505050508473ffffffffffffffffffffffffffffffffffffffff163373ffffffffffffffffffffffffffffffffffffffff167fddf252ad1be2c89b69c2b068fc378daa952ba7f163c4a11628f55a4df523b3ef866040518082815260200191505060405180910390a38473ffffffffffffffffffffffffffffffffffffffff163373ffffffffffffffffffffffffffffffffffffffff167f9bfafdc2ae8835972d7b64ef3f8f307165ac22ceffde4a742c52da5487f45fd186866040518083815260200180602001828103825283818151815260200191508051906020019080838360005b838110156111bb5780820151818401526020810190506111a0565b50505050905090810190601f1680156111e85780820380516001836020036101000a031916815260200191505b50935050505060405180910390a360019150509392505050565b60008261120e33610c10565b101561121957600080fd5b6112348361122633610c10565b61141790919063ffffffff16565b600560003373ffffffffffffffffffffffffffffffffffffffff1673ffffffffffffffffffffffffffffffffffffffff168152602001908152602001600020819055506112928361128486610c10565b610dbf90919063ffffffff16565b600560008673ffffffffffffffffffffffffffffffffffffffff1673ffffffffffffffffffffffffffffffffffffffff168152602001908152602001600020819055508373ffffffffffffffffffffffffffffffffffffffff163373ffffffffffffffffffffffffffffffffffffffff167fddf252ad1be2c89b69c2b068fc378daa952ba7f163c4a11628f55a4df523b3ef856040518082815260200191505060405180910390a38373ffffffffffffffffffffffffffffffffffffffff163373ffffffffffffffffffffffffffffffffffffffff167f9bfafdc2ae8835972d7b64ef3f8f307165ac22ceffde4a742c52da5487f45fd185856040518083815260200180602001828103825283818151815260200191508051906020019080838360005b838110156113d15780820151818401526020810190506113b6565b50505050905090810190601f1680156113fe5780820380516001836020036101000a031916815260200191505b50935050505060405180910390a3600190509392505050565b600082821115151561142857600080fd5b818303905092915050565b60008060008060008060006114536007544361141790919063ffffffff16565b96506009549550603c86029450848710156115025761148e876114806064886115d490919063ffffffff16565b610d9b90919063ffffffff16565b93506114b86103e86114aa60648761141790919063ffffffff16565b61160590919063ffffffff16565b92506114f76114e6846114d86107d0600c54610d9b90919063ffffffff16565b6115d490919063ffffffff16565b600c5461141790919063ffffffff16565b600c81905550611598565b6115288561151a60648a6115d490919063ffffffff16565b610d9b90919063ffffffff16565b91506115526103e861154460648561141790919063ffffffff16565b61160590919063ffffffff16565b9050611591611580826115726107d0600c54610d9b90919063ffffffff16565b6115d490919063ffffffff16565b600c54610dbf90919063ffffffff16565b600c819055505b43600781905550600a54600c5410156115b557600a54600c819055505b600b54600c5411156115cb57600b54600c819055505b50505050505050565b6000818302905060008314806115f457508183828115156115f157fe5b04145b15156115ff57600080fd5b92915050565b6000818311156116175781905061161b565b8290505b929150505600a165627a7a723058200595f930cd6c382f0de9a1bd508cacaab9a9b248c942a80868c8459c55be4bfc0029",
  "source": "pragma solidity ^0.4.23;\n\n/**\n* Symbol      : BCT\n* Name        : Bitcoin Classic Token\n* Total supply: 21,000,000.00\n* Decimals    : 8\n*/\n\nlibrary SafeMath {\n  function add(uint a, uint b) internal pure returns (uint c) {\n    c = a + b;\n    require(c >= a);\n  }\n\n  function sub(uint a, uint b) internal pure returns (uint c) {\n    require(b <= a);\n    c = a - b;\n  }\n\n  function mul(uint a, uint b) internal pure returns (uint c) {\n    c = a * b;\n    require(a == 0 || c / a == b);\n  }\n\n  function div(uint a, uint b) internal pure returns (uint c) {\n    require(b > 0);\n    c = a / b;\n  }\n}\n\nlibrary ExtendedMath {\n  // return the smaller of the two inputs (a or b)\n  function limitLessThan(uint a, uint b) internal pure returns (uint c) {\n    if (a > b) return b;\n    return a;\n  }\n}\n\ncontract ERC223 {\n  uint public totalSupply;\n\n  function balanceOf(address who) public constant returns (uint);\n  function name() public constant returns (string _name);\n  function symbol() public constant returns (string _symbol);\n  function decimals() public constant returns (uint8 _decimals);\n  function totalSupply() public constant returns (uint256 _supply);\n  function transfer(address to, uint value) public returns (bool ok);\n  function transfer(address to, uint value, bytes data) public returns (bool ok);\n\n  event Transfer(address indexed _from, address indexed _to, uint256 _value);\n  event ERC223Transfer(address indexed _from, address indexed _to, uint256 _value, bytes _data);\n}\n\ncontract ContractReceiver {\n  function tokenFallback(address _from, uint _value, bytes _data) public;\n}\n\ncontract BCT is ERC223 {\n  using SafeMath for uint;\n  using ExtendedMath for uint;\n\n  string public symbol;\n  string public name;\n  uint8 public decimals;\n  uint public totalSupply;\n  mapping(address => uint) balances;\n\n  uint private startBlock;\n  uint public latestDifficultyPeriodStarted;\n  uint public epochCount; // number of 'blocks' mined\n  uint public _BLOCKS_PER_READJUSTMENT = 2016;\n  uint public  _MINIMUM_TARGET = 2**16;\n  uint public  _MAXIMUM_TARGET = 2**224;\n  uint public miningTarget;\n  bytes32 public challengeNumber;\n  uint public rewardEra;\n  uint public maxSupplyForEra;\n  address public lastRewardTo;\n  uint public lastRewardAmount;\n  uint public lastRewardEthBlockNumber;\n  mapping(bytes32 => bytes32) solutionForChallenge;\n  uint public tokensMinted;\n\n  event Mint(address indexed from, uint reward_amount, uint epochCount, bytes32 newChallengeNumber);\n\n  constructor(uint _startBlock) public {\n    symbol      = \"BCT\";\n    name        = \"Bitcoin Classic Token\";\n    decimals    = 8;\n    totalSupply = 21000000 * 10**uint(decimals);\n\n    maxSupplyForEra = totalSupply.div(2);\n    miningTarget    = _MAXIMUM_TARGET;\n    startBlock      = _startBlock;\n\n    latestDifficultyPeriodStarted = block.number;\n    _startNewMiningEpoch();\n  }\n\n  function () public payable {\n    revert();\n  }\n\n  function mint(uint256 nonce, bytes32 challenge_digest) public returns (bool success) {\n    // in order to ensure fair launch revert all mining transactions\n    // that happen before startBlock\n    if (block.number < startBlock) revert();\n    // the PoW must contain work that includes a recent ETC block hash (challenge number) and the msg.sender's address to prevent MITM attacks\n    bytes32 digest =  keccak256(abi.encodePacked(challengeNumber, msg.sender, nonce));\n    // the challenge digest must match the expected\n    if (digest != challenge_digest) revert();\n    // the digest must be smaller than the target\n    if (uint256(digest) > miningTarget) revert();\n    // only allow one reward for each challenge\n    bytes32 solution = solutionForChallenge[challengeNumber];\n    solutionForChallenge[challengeNumber] = digest;\n    if (solution != 0x0) revert();  // prevent the same answer from awarding twice\n\n    uint reward_amount = getMiningReward();\n    balances[msg.sender] = balances[msg.sender].add(reward_amount);\n    tokensMinted = tokensMinted.add(reward_amount);\n    // Cannot mint more tokens than there are\n    assert(tokensMinted <= maxSupplyForEra);\n\n    // set readonly diagnostics data\n    lastRewardTo = msg.sender;\n    lastRewardAmount = reward_amount;\n    lastRewardEthBlockNumber = block.number;\n\n    _startNewMiningEpoch();\n    emit Mint(msg.sender, reward_amount, epochCount, challengeNumber);\n    return true;\n  }\n\n  // a new 'block' to be mined\n  function _startNewMiningEpoch() internal {\n    // if max supply for the era will be exceeded next reward round then\n    // enter the new era before that happens\n\n    // 40 is the final reward era, almost all tokens minted\n    // once the final era is reached, more tokens will not be given out\n    // because of the assertion\n    if (tokensMinted.add(getMiningReward()) > maxSupplyForEra && rewardEra < 39) {\n      rewardEra++;\n    }\n\n    // set the next minted supply at which the era will change\n    // total supply is 2100000000000000  because of 8 decimal places\n    maxSupplyForEra = totalSupply.sub(totalSupply.div(2**(rewardEra + 1)));\n    epochCount++;\n\n    // every so often, readjust difficulty. Dont readjust when deploying\n    if (epochCount % _BLOCKS_PER_READJUSTMENT == 0) {\n      _reAdjustDifficulty();\n    }\n\n    // make the latest ETC block hash a part of the next challenge for PoW\n    // to prevent pre-mining future blocks\n    // do this last since this is a protection mechanism in the mint() function\n    challengeNumber = blockhash(block.number - 1);\n  }\n\n  // https://en.bitcoin.it/wiki/Difficulty#What_is_the_formula_for_difficulty.3F\n  // as of 2017 the bitcoin difficulty was up to 17 zeroes\n  // it was only 8 in the early days\n  // readjust the target by 5 percent\n  function _reAdjustDifficulty() internal {\n    uint blocksSinceLastDifficultyPeriod = block.number.sub(latestDifficultyPeriodStarted);\n    // assume 360 ETC blocks per hour\n    // we want miners to spend 10 minutes to mine each 'block'\n    // about 60 ethereum blocks = one BCT epoch\n    uint epochsMined = _BLOCKS_PER_READJUSTMENT;\n    // should be 60 times slower than ETC\n    uint targetBlocksPerDiffPeriod = epochsMined * 60;\n\n    if (blocksSinceLastDifficultyPeriod < targetBlocksPerDiffPeriod) {\n      // make it harder\n      uint excess_block_pct = targetBlocksPerDiffPeriod.mul(100).div(blocksSinceLastDifficultyPeriod);\n      uint excess_block_pct_extra = excess_block_pct.sub(100).limitLessThan(1000);\n      miningTarget = miningTarget.sub(miningTarget.div(2000).mul(excess_block_pct_extra));\n    } else {\n      // make it easier\n      uint shortage_block_pct = blocksSinceLastDifficultyPeriod.mul(100).div(targetBlocksPerDiffPeriod);\n      uint shortage_block_pct_extra = shortage_block_pct.sub(100).limitLessThan(1000);\n      miningTarget = miningTarget.add(miningTarget.div(2000).mul(shortage_block_pct_extra));\n    }\n\n    latestDifficultyPeriodStarted = block.number;\n\n    if (miningTarget < _MINIMUM_TARGET) {\n      miningTarget = _MINIMUM_TARGET;\n    }\n\n    if (miningTarget > _MAXIMUM_TARGET) {\n      miningTarget = _MAXIMUM_TARGET;\n    }\n  }\n\n  function getChallengeNumber() public constant returns (bytes32) {\n    return challengeNumber;\n  }\n\n  function getMiningDifficulty() public constant returns (uint) {\n    return _MAXIMUM_TARGET.div(miningTarget);\n  }\n\n  function getMiningTarget() public constant returns (uint) {\n    return miningTarget;\n  }\n\n  // 21m coins total\n  // reward begins at 50 and is cut in half every reward era (as tokens are mined)\n  function getMiningReward() public constant returns (uint) {\n    return (50 * 10**uint(decimals)).div(2**rewardEra);\n  }\n\n  // ERC223 functionality\n  function name() public constant returns (string) {\n    return name;\n  }\n\n  function symbol() public constant returns (string) {\n    return symbol;\n  }\n\n  function decimals() public constant returns (uint8) {\n    return decimals;\n  }\n\n  function totalSupply() public constant returns (uint256 _supply) {\n    return totalSupply;\n  }\n\n  function balanceOf(address who) public constant returns (uint) {\n    return balances[who];\n  }\n\n  function transfer(address _to, uint _value, bytes _data) public returns (bool success) {\n    if (isContract(_to)) {\n      return transferToContract(_to, _value, _data);\n    } else {\n      return transferToAddress(_to, _value, _data);\n    }\n  }\n\n  function transfer(address _to, uint _value) public returns (bool success) {\n    bytes memory empty;\n    if (isContract(_to)) {\n      return transferToContract(_to, _value, empty);\n    } else {\n      return transferToAddress(_to, _value, empty);\n    }\n  }\n\n  function isContract(address _addr) private view returns (bool) {\n    uint length;\n    assembly {\n      length := extcodesize(_addr)\n    }\n    if (length > 0) {\n      return true;\n    } else {\n      return false;\n    }\n  }\n\n  function transferToAddress(address _to, uint _value, bytes _data) private returns (bool success) {\n    if (balanceOf(msg.sender) < _value) revert();\n    balances[msg.sender] = balanceOf(msg.sender).sub(_value);\n    balances[_to] = balanceOf(_to).add(_value);\n    emit Transfer(msg.sender, _to, _value);\n    emit ERC223Transfer(msg.sender, _to, _value, _data);\n    return true;\n  }\n\n  function transferToContract(address _to, uint _value, bytes _data) private returns (bool success) {\n    if (balanceOf(msg.sender) < _value) revert();\n    balances[msg.sender] = balanceOf(msg.sender).sub(_value);\n    balances[_to] = balanceOf(_to).add(_value);\n    ContractReceiver reciever = ContractReceiver(_to);\n    reciever.tokenFallback(msg.sender, _value, _data);\n    emit Transfer(msg.sender, _to, _value);\n    emit ERC223Transfer(msg.sender, _to, _value, _data);\n    return true;\n  }\n}\n",
  "sourcePath": "/home/pex/Schreibtisch/truffle/contracts/BCT.sol",
  "compiler": {
    "name": "solc",
    "version": "0.4.24+commit.e67f0147.Emscripten.clang"
  },
  "schemaVersion": "2.0.1",
  "updatedAt": "2018-09-19T06:34:59.692Z"
}